:1000000000000120DD340000D9340000D9340000A4
:10001000D9340000D9340000D9340000D9340000AC
:10002000D9340000D9340000D9340000D93400009C
:10003000D9340000D9340000D9340000D93400008C
:10004000D9340000D97C0000D9340000D934000034
:1000500069770000457D0000E57C0000FD7C000024
:10006000DD7C0000D9340000D9340000D934000010
:10007000D9340000D9340000D9340000D93400004C
:10008000D9340000D9340000D9340000D93400003C
:10009000D9340000D9340000D9340000D93400002C
:1000A000D9340000D9340000D9340000D93400001C
:1000B000497D0000E17C0000D9340000897D00000A
:1000C000D9340000E53B0000D9340000D9340000E9
:1000D000D9340000D9340000D9340000D9340000EC
:1000E000D9340000D9340000D9340000D9340000DC
:1000F000D9340000D9340000D9340000D9340000CC
:10010000D9340000D9340000D934000010B5054CB2
:10011000237833B9044B13B10448AFF300800123B3
:10012000237010BDB80000200000000004A70000EC
:1001300008B5034B1BB103490348AFF3008008BD6A
:1001400000000000BC00002004A70000154B002B9D
:1001500008BF134B9D46A3F5803A00218B460F46FE
:100160001348144A121A08F0F8FB0F4B002B00D06A
:1001700098470E4B002B00D0984700200021040028
:100180000D000D48002802D00C48AFF3008008F0A5
:10019000B5FB2000290002F037FB08F09BFB00BFF5
:1001A0000000080000000120000000000000000026
:1001B000B8000020101C002000000000000000001B
:1001C00037B50446684680E8060003C8251D85E863
:1001D00005002373069B2361BDF81C30A382002316
:1001E0002360084B1A6812B91C6004E00A461168C3
:1001F0000029FBD114609888013080B2988003B048
:1002000030BD00BFD006002007B503790193054A31
:100210000368009306CA02230830FFF7D1FF03B03A
:100220005DF804FBE48B00000A4B40F2011210B5AC
:100230001A604FF0FF329A6001225A6008441A4651
:10024000814202D1D869C04310BD11F8014B9461BD
:10025000F6E700BF00C0014070B5134C2268A2F160
:100260007E63A3F58433B3F5104FE0B005460E4628
:1002700017D2126BA2F17E63A3F58433B3F5104F4E
:100280000FD2536A69464FF4C0720020984730B9C4
:1002900023681B6B3246DB6A29466846984760B084
:1002A00070BD4FF40170FAE72808E10F0F4A10B44F
:1002B0001468A4F17E62A2F58432B2F5104F0B46A9
:1002C0000FD2246BA4F17E62A2F58432B2F5104FF6
:1002D00007D22469064A0146A44600205DF8044B73
:1002E00060474FF481705DF8044B70472808E10FB8
:1002F0002007002070B51C4D2A68A2F17E63A3F58B
:100300008433B3F5104FE0B004D34FF401742046AA
:1003100060B070BD136B002BF7D05B6A4FF4C072F6
:1003200069460020984704460028F0D140F2012693
:100330002A68A2F17E63A3F58433B3F5104FE4D2AB
:10034000126BA2F17E63A3F58433B3F5104FDCD2B8
:10035000936A002168469847B042E9D040F20323EF
:10036000984218BF0446D2E72808E10F0E4B30B57B
:100370000E4C5B68C9B2002304EBC30215798D42B1
:1003800003D154F8335085420BD20133052BF3D1FE
:10039000032205494B6823F0407343EA02634B6034
:1003A00030BD5279F5E700BF00000E40F08A000032
:1003B00038B5054C41F67133256C2364FFF7D6FF41
:1003C0000DB10023236438BD00000E400C4B984251
:1003D00010D90C4B984210D9022201230A490B6014
:1003E0000A49D1F8003123F0807343EA0263C1F86F
:1003F0000031704700221346F0E70122FBE700BFFF
:100400000048E8010090D0034000C84300400E407F
:10041000044A1368002BFCD1034B5868C0F3014019
:10042000704700BFC800C64300300E40154B02287D
:10043000D3F8803113D0032814D0012814BFDBB2C5
:10044000C3F307231B0323F47042B1B9BAB90E49B1
:10045000CA6E22F470421343CB6601207047C3F387
:100460000743EFE71B0EEDE70749D1F8EC2022F434
:1004700070421343C1F8EC30EFE7002AF4D00020BB
:10048000704700BFB081E00F00300E40304B1A6F54
:10049000D96CC90702F0070242D5012A40D91328B6
:1004A00051D9143813288CBF102308232849013B45
:1004B000CA6C180322F47F4240EA03231343CB643F
:1004C000244BCA6C1B88C2F303222833013202EB8F
:1004D000820003EB5303B3FBF0F3C86C013B072B23
:1004E00020F0EE6028BF072340F4801040EA036349
:1004F000CB64194BB3F90030002B10DB28335008C4
:1005000000EB420203EB5303B3FBF2F30A6D072B3C
:1005100028BF072322F0700242EA03130B657047DD
:10052000DB6CD90706D4012A04D809280BD90A386C
:100530000928B8E7064BDB6C13F00103B6D0012A9B
:1005400003D82728AFE70423B0E70023AEE700BFB6
:1005500000300E40EE060020F006002042EA0323A1
:1005600040F2011293422BD0B3F5817F08D2012BC8
:100570001DD030D3B3F5807F31D0002213461CE06C
:1005800040F20122934222D006D8B3F5007FF4D185
:10059000174BD3F870310DE0B3F5407F23D040F214
:1005A00001329342E9D1124BD3F878310BE0104B72
:1005B000D3F87431C3F30722DBB203600A607047DB
:1005C0000B4BD3F874311A0EC3F30743F5E7084B0E
:1005D000D3F87831EEE7064BD3F86C31EAE7044BF9
:1005E000D3F86C31EFE7024BD3F87031EBE700BF83
:1005F000B081E00F094B30B5196C5C6C00222346CA
:1006000042EA0104220C82701A0A210AC2701A0CF2
:100610001B0E047041700271437130BDB081E00F58
:10062000214BD3F8F82102401CD170B4D3F8FC510F
:10063000D3F8006203F5FC74641BA410022C12D0E2
:10064000032C29D0012C1AD0184A52682A6005F1CF
:100650000C026860C3F8FC21A96033680C33336076
:1006600070BC70477047114A1C1D52682A60686050
:1006700004221960C3F8FC41326070BC70470B4C17
:100680001A4664682C6042F8080B08205960C3F8C9
:10069000FC21306070BC7047044C6468A960C5E9F7
:1006A0000040C3F8FC31E7E7AC150020001000E083
:1006B000837DDB0701D5808A7047D0E901239B1A2F
:1006C00044BF828A9B1898B270470000044B5A6D51
:1006D00022B95865A3F858100120704700207047D0
:1006E00070060020D0B50C4CE38C0A20584307F06C
:1006F00055FE0646A08C0F4607F050FE0022074B21
:1007000007F0B6FE02460B463046394607F0DAFFE0
:1007100008F0C0F82083D0BD700600200000F43F30
:10072000084A10B5146840F2E243584303FB014104
:10073000536800F5807001EB50011844116050605F
:1007400010BD00BF7006002070B500228AB01346AD
:10075000D91003F00704415C2141CC0741BF0AA92D
:100760008918013201F8283C0133252BF0D10E4DB8
:100770000023D91003F00704415C2141C90707D5C4
:10078000E91881F82A300133252BF2D10AB070BD67
:100790000AAE93FBF2F102FB11313144EC1811F86F
:1007A000286C84F82A60EEE770060020024B986CF3
:1007B00080B28002704700BFB081E00F7FB50E4B62
:1007C00002466D4603F11006186859682C4603C4AA
:1007D0000833B3422546F7D1531E04A90F3211F84E
:1007E000014D13F8010F844204D19342F7D1012047
:1007F00004B070BD0020FBE7D489000070B51A4D2D
:10080000286810BB194B1A4CE41A1A4B1C4424F4E8
:10081000FF6424F00704FFF7C9FF844214D2666B1B
:10082000A6B1FFF7C3FF864210D2FFF7BFFF06F164
:10083000400383420AD83046FFF7C0FF30B1F36966
:1008400033F0080302D02C60286870BD04F586766A
:100850003046FFF7B3FF20B1D4F8283133F0080356
:10086000F1D104F50064D6E7340100201000002027
:10087000B80000204FAF0000BFF34F8F0549064B73
:10088000CA6802F4E0621343CB60BFF34F8F00BF2E
:10089000FDE700BF00ED00E00400FA050A4B1A680E
:1008A000A2F17E63A3F58433B3F5104F09D2126B26
:1008B000A2F17E63A3F58433B3F5104F01D2D36B5D
:1008C000184740F2011070472808E10F0D4B10B493
:1008D0001C68A4F17E63A3F58433B3F5104F0BD2EB
:1008E000246BA4F17E63A3F58433B3F5104F03D2D8
:1008F000A36B5DF8044B184740F201105DF8044B00
:10090000704700BF2808E10F064B1A68A2F17E630A
:10091000A3F58433B3F5104F01D2536A1847002072
:10092000704700BF2808E10F114B196801F17043AF
:1009300003F5F813B3F5006F0CD20E4B1B68A3F14F
:100940007E62A2F58432B2F5104F03D209680A4ADA
:10095000914203D000230370836070471968074AEF
:100960009142F7D1012202709A6842609B69F3E7D5
:100970002800E10F2808E10FAD1007B007B0CD5EE9
:1009800010B50C4630B90448FFF7CEFF034B236087
:100990000423A380002010BD9001002094010020BA
:1009A00010B508B3114B1A68918881421CD39988FD
:1009B000814281BF0121126899809A6099889A6862
:1009C00000242AB904B19A604FF6FF71998009E0BA
:1009D000884204D00131126889B20124F1E70CB1D8
:1009E00098809A60104610BD0022FBE7D8060020D0
:1009F00037B50D461446FFF7D3FFD8B10369828A95
:100A000063B14FF6FE718A4208D100200090ADF824
:100A100004006946984738B103B030BD2B6022808E
:100A2000286848B92080F7E7009B2B60BDF80430A8
:100A30002380F5E70120EFE70020EDE737B50D460D
:100A40001446FFF7ADFF70B1036973B1818A4FF6A9
:100A5000FE72914209D10095ADF80440694601202B
:100A6000984703B030BD0120FBE70E20F9E70000F6
:100A700037B50379124A03330446019300F1440366
:100A8000009306CA02231430FFF79AFB228A0192D0
:100A9000E268237A009204F12C0094E80600FFF744
:100AA0008FFB237AA4F84500054684F84430227968
:100AB000216804F1470007F045FF284603B030BD28
:100AC000DC8B000070B50E4C0E4B04F11002064694
:100AD0000D4692E80300183483E803001846FFF738
:100AE00093FB094B94E8030002221A7283E8030087
:100AF000DE601D821846BDE87040FFF7B9BF00BF39
:100B0000D489000044150020B80400202DE9F041EC
:100B1000054616468846FFF7CBFDAB8A181A80B209
:100B2000864228BF064637465FB93EB1D5E9013255
:100B30009A4202BFAB7D43F00103AB753046BDE87E
:100B4000F081AB8A2C68A8681C44241AA3B2BB426B
:100B50008CBF3C46A4B22246414607F0F3FEAB6888
:100B60002968AA8A23440A44A0449342A7EB0404B8
:100B7000AB60A7B228BFA960D6E770B5044615469A
:100B80001E4611B3FFF794FDA38A181A80B20128FC
:100B900029D9E37D63B1E368628A1A70120A07D02B
:100BA0002068A18A013301448B4228BF0346F4E741
:100BB00000236382A368E360022204F1120120464D
:100BC000FFF7A4FFE37D0133E37532462946204653
:100BD000FFF79CFF638A03446382E37D13B9238A92
:100BE0000344238270BD0020FCE72DE9F041164646
:100BF00005468846FFF75CFD864228BF0646B6B22A
:100C000037464FB92EB1AB7DDA0744BF23F001035D
:100C1000AB753046BDE8F081AB8A2C6869681C442E
:100C2000641AA3B2BB428CBF3C46A4B222464046E3
:100C300007F088FE6B682968AA8A23440A44A04406
:100C40009342A7EB04046B60A7B228BF6960D8E7A2
:100C500070B51E46038A04461546EBB9C27DDAB16B
:100C60000123013A0B70C27500F110010222FFF757
:100C7000BCFFE37D9BB1228AB24228BF324629469F
:100C80002046FFF7B2FF238A1B1A2382E37D13B9A4
:100C9000638A1B1A638270BD00230B70EBE7638AC3
:100CA0002382E8E770B50E46B0B9FFF7A7FD04460A
:100CB000FFF7A4FD60B1094D04F5867304F5A67431
:100CC000186859682A4603C20833A3421546F7D16B
:100CD000034B33600423B380002070BD3801002033
:100CE000580100202DE9F04385B088466946044646
:100CF00081E80C000C9EBDF83470FFF751FE4FF6F2
:100D0000FE7905460DB1444505D94FF6FF742046DE
:100D100005B0BDE8F0832B7A9DF804209A421ED1DD
:100D20000099686807F021FEC8B9002EEFD02B6942
:100D3000AA8AA3B14A4509D10290ADF80C0002A9D4
:100D4000984760B9029BBDF80C2043B1974206D189
:100D50003A461946304607F008FE0028D7D001343D
:100D60002D68A4B2CEE70000F0B5354C85B0114631
:100D70004FF486701F461646FFF752FC236925463E
:100D80002BB94FF48370FFF74BFC05B0F0BD002F7B
:100D900008BF082E21D16A460221206802F080FE99
:100DA000636860615B7A23769DF80030DA1F5342F6
:100DB0005341627E63F30002029BE361BDF802309F
:100DC0006276638304F118012369022098470122A7
:100DD0000021206802F06CFED7E7002F08BFB6F5AF
:100DE000801F03D1002101209847CEE706F4C052AE
:100DF0000023134309D04FF480714FF48170FFF743
:100E00000FFC236900210320EEE706F44072002363
:100E1000134308D001214FF48170FFF701FC2B69C7
:100E20000021FF20E0E706F0A0620023134319BF72
:100E3000012140F2011031464FF48370EDE700BF0D
:100E4000B01300207FB502238DF80C30064B5A8B6F
:100E5000596918680332029201AA02F025FE01982E
:100E600007B05DF804FB00BFB013002008B50021F7
:100E70004FF48570FFF7D4FB044B00221A61186809
:100E800001220321BDE8084002F0C2BBB0130020DC
:100E900013B50D4B0D4C1B88ADF804300128ADF88F
:100EA000003004BF02238DF8043001A908BF0423D9
:100EB000206808BF8DF8003002F066FD69462068A2
:100EC00002F082FD02B010BDF4890000B0130020D2
:100ED00037B5124C437A606000220092D0E90021BD
:100EE000206802F067FE238CDB050CD563680C4D8F
:100EF0001A7A2978914206D0012A06D0022A08D00F
:100F000063681B7A2B7003B030BD206802F017FEB7
:100F1000F6E7206802F026FEF2E700BFB0130020DB
:100F2000CD0600207FB51A4C1948637A0133DBB235
:100F3000272B88BF25236372FFF7CAFF257B627CBE
:100F4000144C154920684FF40073023202F088FDFA
:100F50006368124A5B7A05F001052846D65CFFF704
:100F600097FF42F2107300220293009201238DF842
:100F70000C30314602AB206802F04EFB28B1FFF77F
:100F800075FFFFF7CFFF04B070BD054B2361FAE793
:100F9000D4000020B0130020E4000020B08B00003B
:100FA0004517000038B50D4611462C68A41A224694
:100FB000014407F0E9FC2C6038BD00002DE9F04742
:100FC000DFF86C814F4CD8F800304F4EC51A4F48AF
:100FD0003560241A4E48044424F4FF6424F00704C6
:100FE000A542C14670D313445F19FFF7DFFBA0F59C
:100FF0008050874268D2D8F800008418B4F5806F1A
:1010000003D9444B82221A705CE0DFF82081424F02
:10101000404407F097FCD7F800A0C9F80040BAF1A7
:10102000000F1DD1B4F58E7F4CD33C4A08F5867372
:1010300008F58E7853F8041B42F8041B4345F9D198
:101040003648FFF7BBFB10B9324B8422DBE7102296
:10105000FF21334807F081FC324A05F5867313609F
:1010600004F0030830482C44A4EB08040440BAF10F
:10107000000F0AD12840C0F500612144FFF70EFCA3
:101080003C6048B1234B8522BDE7A24504D2A4EBC6
:101090000A010AF50060F1E7D9F800202349306819
:1010A000A2EB0802FFF712FCD9F8002033682049B0
:1010B000A2EB0802044613441C483360FFF772FF9A
:1010C000002CDFD1BDE8F0871A4B5B68B3F1827F5B
:1010D000104B12D218780A4400268A4203D1002EFF
:1010E000F0D01870EEE711F8017BFF2FF5D0012644
:1010F000A54234BF87208320EFE7A54234BF872273
:10110000832280E7B8000020280B00201000002078
:101110004FAF0000250B0020AC130020940F0020DF
:10112000B4100020A40F002000F8FFFFA80F00203B
:10113000A81300209C010020EFF3108072B67047C6
:10114000EFF3108072B6704700B962B670470000C6
:1011500010B5034CA01DFFF7F7FA0023236010BD64
:10116000740F002010B5094CB4F80710A079FFF7F0
:10117000D7FAA368064AB4F80D10D184C3F30F233D
:101180009384FFF7AFFA0023236010BD740F002093
:1011900070060020034B044A9979117500221A60E9
:1011A000704700BF740F002070060020FFF7CCBF0F
:1011B0002DE9F0410D4F06460D4614460CB9BDE829
:1011C000F081EFF3108872B623462A46314638463E
:1011D000FFF7D3FC03464046FFF7B6FF002BEDD0E8
:1011E000E41AA4B21D440026E8E700BF580E002010
:1011F00013B5002301F10804ADF80430ADF8060082
:1012000021461A46083151F8100C70B90BB1ADF8EF
:10121000042004220DEB020101200834FFF7C8FF6F
:1012200054F8101C39B902B010BD51F80C3C1A44E6
:1012300092B20123E6E734F80C2C0020EDE7000021
:101240007FB500230130CDE90101CDE904336946C2
:10125000044B009304200392FFF7CAFF07B05DF828
:1012600004FB00BF7E0100200E4A1368A3F17E63D9
:10127000A3F58433B3F5104F10B50ED2EFF3108001
:1012800072B6094900240B780C70FFF75DFF3BB183
:101290001368BDE810401B6A18474FF4817010BDF9
:1012A0001846FCE72808E10F710F002001282DE9FE
:1012B000F34740F030818B88012B40F02E810B6882
:1012C0001B7813BB974A984C1360984A1360984A4E
:1012D0001360984A1360984A1360984A1370984AAA
:1012E0001360984A13602278022A01D1FFF7BCFFED
:1012F00001232370944B00241C70944B1C70944B5E
:101300001C70204602B0BDE8F087032B40F0F0804F
:101310008F4B854E1C78002C4AD13378002B00F07F
:10132000DB80864B1B78082B7AD17E4A1368904667
:101330008BB9884D2B68A3F17E63A3F58433B3F595
:10134000104F50D34FF4017041F20803984200F05F
:10135000C58080242CE013F003071ABFC7F10407EF
:10136000FFB2274603EB070ABAF5806F00F2BA8096
:1013700079483A461844FF2107F0EFFA704B6B4A60
:10138000C8F800A015681A6815445544DFF8A8A1EC
:1013900025F4FF65DAF8000025F007058542994637
:1013A0000BD9291A00F50060FFF778FA18B18524E7
:1013B00000233370A5E7CAF80050D8F80010D9F818
:1013C0000000FEF773FFD9F80030D8F80020554927
:1013D00013440546DF1B6048C9F80070FFF7E2FDC3
:1013E000002DA6D0E3E7FEF785FF0028ACD12A68E0
:1013F0000190A2F17E63A3F58433B3F5104F0BD2B5
:10140000126BA2F17E63A3F58433B3F5104F03D2C0
:101410009369012101A898474C4B01221A70C7E734
:10142000002B5DD0484B1B78002B92D0454F3B687A
:1014300043B9404B494918681022FFF747FA002882
:10144000B6D0B4E713F003021CBFC2F10402D2B25B
:101450009D18B5F5806F45D84148FF21184407F025
:101460007CFA404A404B324840493D609B1A404A12
:10147000134402680B409342804635D81544FFF769
:1014800095F9A0F58050854230D23D68DFF8A890EC
:101490002A44D9F8000002EA0105854208D9291A30
:1014A00000F50060FFF7FAF9002880D1C9F8005074
:1014B0003A682B49D8F80000FFF708FAD8F800304E
:1014C0003A682049054613442548C8F80030FFF71C
:1014D00069FD002DADD06AE7812469E7862467E7BE
:1014E000842465E7822463E7872461E783245FE738
:1014F000042B14D11F4C132302216370204621704A
:10150000FFF7E4F81C4A1D4B128905329A801C4AE9
:101510001A6062789A710024F3E60D24F1E606243D
:10152000EFE600BF200B0020260B0020A4150020B2
:10153000280B0020A40F0020AC130020780100200D
:101540002C0B0020A8130020240B00208501002074
:10155000250B00202808E10F20070020940F002011
:10156000A80F002010000020B800002000F8FFFFA6
:101570004FAF0000880F002070060020740F00207D
:10158000411C00000E4A1368A3F17E63A3F5843367
:10159000B3F5104F10B50ED2EFF3108072B6094BB1
:1015A000012419781C70FFF7CFFD39B91368BDE825
:1015B0001040DB6918474FF4817010BD0020FCE734
:1015C0002808E10F710F0020134A144C08B5937ED0
:1015D00043F040039376124B00221A70114B1B7894
:1015E0004FF000556BB1FFF7CDFF0F4B2B60012380
:1015F000A360236823F4E06343F480632360FFF770
:101600003BF92B600123A360236823F4E06343F4D8
:1016100080632360FFF730F97006002000500E4011
:10162000CC0600208501002002020FF010B5134CFB
:10163000A37E5B0621D4FFF719FC2168A38C40F23E
:10164000E24202FB0312226094F84F10A27A252096
:101650000A4492FBF0F100FB1122A27222890132AE
:10166000228162680A2101FB03236360238B5A1ED7
:10167000228313B90820FFF7A7FF10BD70060020D2
:101680002DE9FF41294C40F601002189FEF7C8FFF2
:10169000A37E13F0400242D143F0010303F0FD03A7
:1016A00062F38203224AA376136823B121899288C8
:1016B000914200D19847A37A1E4E1F48234493F8C5
:1016C0002A306375FFF704FCD4E9005473681B4AA1
:1016D0005B7A64082F1B12F803800120FFF7D8FB08
:1016E00064350097002725446A46012441463B465D
:1016F000306802958DF804708DF80C708DF80D40EF
:101700008DF80E4001F08CFF2246054639463068C0
:1017100002F0CEF935B1FFF789FFFFF7B1FF04B052
:10172000BDE8F081064B3361F9E700BF7006002089
:10173000740F0020B01300207C060020B08B000046
:10174000A918000002282DE9F0411FD002D8012875
:1017500007D0FEE7032800F09C80FF2800F0998066
:10176000F7E74D4C237B980707D5FFF77FFBFFF783
:10177000D9FB237B6FF341032373237B990701D4A8
:10178000DA0764D4BDE8F041FFF7CCBB4B784C6876
:10179000DB077ED5227802F00F07032F59D0052FE3
:1017A00077D13E498B7B03F00103B3EBD21F04F1E9
:1017B00008004CD10622083107F0D7F880460028EF
:1017C00045D1FFF753FBFFF73DFB354D414606463C
:1017D0005C22284607F0C1F8AB7E2F8343F020033C
:1017E000AB76627E237E43EA0223AB84627F237F53
:1017F00043EA0223EB8494F82330C3F3040385F80F
:101800004F3094F82330C3F3421385F8503004F17D
:101810001E001B232B85FEF797FFD4F80E30E27CC9
:10182000EB60A37C2E6043EA0223227D607D43EAC5
:1018300002432B61012795F84F30AB722F75E18A77
:101840003944FEF76DFFFFF71BFF164B1F70BDE815
:10185000F081124DAB7B03F00103B3EBD21F04F117
:101860000800F4D1062205F1080107F07EF80028EF
:10187000EDD1094C286894F839204FF400730232F6
:1018800004F1380102F0ECF8237B43F002032373E8
:10189000DDE7FFF7EBFA75E7D4000020B013002076
:1018A00070060020CC06002002282DE9F7430F46E1
:1018B0000BD003D8012800F0B281FEE7032800F026
:1018C000B681FF2800F0B381F7E748784E68BB4D3A
:1018D00010F0010461D14FF0FF3140F60300FEF734
:1018E0009FFE2646AB7EB64C13F0200F12D0696DDA
:1018F0006FF34513AB76002900F09F80237895F8AD
:101900005820627043F003032370A01C07F01AF8FC
:1019100000236B65AB48DFF8D082FEF7C9FEAA7ED4
:101920002378003018BF012060F34102C2F3001198
:10193000AA7661F38203C2F3C00262F3C30360F3C9
:1019400004132370218840F60200FEF769FE6278D6
:101950009B49D8F8000002324FF40073D2B202F073
:101960007FF8AB7E7C68D90709D56FF30003AB76AF
:1019700000236B60FFF766FA2860FEF7B3FE4EB1F6
:10198000237803F00303022B00F031816DD8012B83
:1019900000F02C8103B0BDE8F083318840F60300ED
:1019A000FEF73EFE3378A97E96F80080C3F300135D
:1019B00063F38201A976C8F3C003C1F300118B421F
:1019C00006D108F00303022B05D019D8012B31D022
:1019D0000026344615E0A146767896B17A48848A86
:1019E000FEF766FE201A80B2B9F1000F04D002287B
:1019F00086BF023880B2002086428CBF00240124BA
:101A00002646AB7EC8F38008C3F3C002904507D0DA
:101A100082F0010262F3C303DBB243F02003AB7632
:101A2000002C3FF45FAFAB7E81F0010161F3041342
:101A3000AB7657E74FF00009CEE795F828306148BC
:101A4000A21C0DF10701FFF703F9C0B258B19DF8D0
:101A50000730002B0CBF012202222378607062F352
:101A60000103237056E70122F7E7A378022B65D024
:101A700011D8002B4DD0012B38D0544A127822B106
:101A8000162B7FD0182B00F08C8051480722027053
:101A90004370022127E00C2B18D0142B56D0082BB2
:101AA000EBD1B8F8201054F8035FC8B205EA000281
:101AB000474801F47F41044642EA0105092104F840
:101AC000011B0023C0F8015063600CE040484FF058
:101AD000FF320370012343708270037102220023DE
:101AE000C27043710621FEF7F1FD53E7617A237A54
:101AF000384A43EA012393801346374943F8061BCB
:101B000054F8031FC2F80610A2889A80A2799A712D
:101B100040E7627B237B2F4943EA02238B800B46FD
:101B20002E4A43F8062B54F8032FC1F806206268AA
:101B30005A6022891A81A27A9A722BE72A89254B48
:101B400005329A80264A1A60E278E0E7B4F8053058
:101B5000B4F803201E48DB08934228BF13462B85A8
:101B6000152300216FF004046FF027020370072390
:101B7000817081714470C27003714471C2710372CB
:101B80000921B0E72279E3781148134003F00303F9
:101B9000022B18BF012317220270437083700321A8
:101BA000A1E76279A1790B4B42EA01229A800D4AA2
:101BB0001A60D4F80320C3F80620EBE67006002074
:101BC000B0170020580E0020400D0020700F00209C
:101BD000880F0020740F00205111000065110000D3
:101BE000411C000095110000B0130020002612488F
:101BF000818AFEF75DFD081AA51C80B2647826B1C3
:101C0000022886BF023880B20020A3B283423FF68A
:101C1000C1AE2A4631460848FEF7AFFFBAE6074B89
:101C20009B7E9A073FF5B6AE5B073FF5B3AEFFF775
:101C3000FDFCFFF725FDADE6400D002070060020FD
:101C400008B5024B9879FFF7BFFC00BF740F002066
:101C50002DE9F04F01288BB040F048818A88002A96
:101C600000F04681A44D95F800B0BBF1000F00F0E4
:101C70004181A24B1C7898465CB9A14806788246FF
:101C80003EB9A04E30681718B7F5806F05D9822489
:101C90001C7020460BB0BDE8F08FDFF88892096811
:101CA000484406F04FFEBBF1020F37603DD0032FD2
:101CB000EFD9954F3846FEF737FE3B78D9F800202C
:101CC000012B924B62D19A4262D1BB68DB0368D58B
:101CD00002232B70FFF756FC8D4B1A68A2F17E632E
:101CE000A3F58433B3F5104F0BD2126BA2F17E63D0
:101CF000A3F58433B3F5104F03D2936803A90020F2
:101D000098470398834B844A186020F4FF6323F0BC
:101D100007034FF400611360FEF7C0FD88BBFEF7B8
:101D20006DFD40BB2B78022BB3D17C497C4F0878EA
:101D30003A68336810F0F70F894640F0AC80754977
:101D40000D681D4403F0030B1544734B0193A5EB81
:101D50000B0525F4FF65186825F00705854223D992
:101D6000291A00F50060FEF799FD019BD8B1852482
:101D700088F800408DE74FF40061FEF78FFD0028E2
:101D8000D0D0852388F800301C4682E79A4208D0DC
:101D9000842388F8003098F80030002B3FF479AFA6
:101DA000F0E78623F5E71D6031683868A1EB0B0189
:101DB000FEF77CFA32683B685249A2EB0B020546FB
:101DC000134458483B60FFF7EDF8002DCFD199F848
:101DD0000030002B7FF45DAF3B687F2B7FF759AF5E
:101DE00002A903A8FEF738FA10B9039B89F800305E
:101DF00099F8003013F0F70F3FF44BAF444D3B68B8
:101E00002968A1F17E62A2F58432B2F5104FAED2FC
:101E1000096BA1F17E62A2F58432B2F5104FA6D211
:101E2000D1F80C903F4A00210846C84700289ED1AF
:101E30003B683360384B3C4F18603C4B7B602A68F2
:101E4000A2F17E63A3F58433B3F5104F8FD2936A6A
:101E500037484FF400719847002888D129683368C3
:101E6000A1F17E62A2F58432B2F5104F3BD2CD6A69
:101E70002C4A2F483946A847054632682149294847
:101E8000FFF790F840F203239D421ED040F2012359
:101E90009D4226D1FDE61A443A601D4A1168A1F11F
:101EA0007E62A2F58432B2F5104F12D2CD6A1D4A7D
:101EB0001D491F48A8470546326812491948FFF7CF
:101EC00071F840F203239D4206D101238AF80030C5
:101ED000DFE640F20225EFE740F201239D423FF4A6
:101EE00076AF802444E740F20225C6E70024D0E61E
:101EF0000D24CEE68124CCE6260B0020250B002005
:101F0000240B0020200B00209C010020EB17A603CF
:101F10002808E10FA4150020AC1300207801002050
:101F20002C0B002020070020300B0020BD0F0000EC
:101F3000400B0020F8B504287BD8DFE800F00B0345
:101F400012A2A7008026402506230724002900F0BE
:101F5000848072E04FF400764FF4807508230924E2
:101F6000F4E7002976D04C4C636A13F0300F61D14E
:101F70004A4BDB6B636ADD0705D5636A23F03003E8
:101F800043F010036362042502230324424E3566A6
:101F9000434E33449B001F68002FFCD0002A48D0DA
:101FA0003444A4002368002BFCD0022841D100292E
:101FB0003FD0394B5A6A12F0010F1A463FD04FF406
:101FC0008062C3F8A82020225A665A6A12F0300FA5
:101FD0000CBF4FF440024FF40002D3F8901032EAE5
:101FE0000101FAD1520201D5D3F8A0302A4E0122C4
:101FF00000210220D6F89C70FFF79CFFD6F89030A5
:10200000726A284B22F0300242F010027262C7F36B
:102010000A07316BFA0903320F2A03EA010328BFCA
:102020000F223B4343EA0273336335662368002B78
:10203000FCD0F8BD0425022303240021A6E7536A3F
:10204000D2F8903003F44003B3F5400FF8D1D2F842
:10205000A030CBE70826022303240F4901200E6697
:1020600000FA03F3D1F890001842FBD1002AE0D027
:102070000123094A03FA04F4D2F890302342FBD139
:10208000D7E70125022600232C465FE720261025EE
:10209000042305245AE700BF00400E4000300E40E4
:1020A0008004F21000F8FF0F0048704700F049026A
:1020B00000F00F000138072848D8DFE800F0040FCF
:1020C0001947232D4735244BD3F8943003F00703E9
:1020D000023B052B3CD8214AD05C70471E4BD3F8FD
:1020E000803003F00703013B032B33D81C4AF3E78E
:1020F000194BD3F8843003F00703013B032B29D895
:10210000184AE9E7144BD3F8883003F00703013B82
:10211000032B1FD8144ADFE70F4B1B6F13F0010F7F
:1021200014BF0920072070470B4BD3F85C3103F034
:102130003003202B06D0302B06D0102B0CBF0720ED
:102140000120704704207047082070470020704726
:10215000052070470120704700400E40028A0000B1
:10216000088A00000C8A0000088A0000054A064B15
:102170001B68136F23F007031843044B106718887C
:10218000FEF784B900300E408009C643EC060020FB
:102190000B4A536911699B0003F03C03C1F38111A1
:1021A0000B438370136903F03F0343709369D26953
:1021B00003F0F003C2F3031213430370704700BF30
:1021C000D0FF0FE0FEE70000044B054A9A60D3F809
:1021D000882042F47002C3F88820704700ED00E0C8
:1021E000000000000B4BD3F8942002F00702022AF3
:1021F00004D001D3042A0AD9074800E00748D3F8DD
:102200000031C3F304230133B0FBF3F070474FF404
:102210000040F4E700400E40C0EA210100F049020E
:1022200010B50E4CD4F8002108B9FFF7DBFFD4F845
:102230000031FFF7D7FF0446FEF7EAF868B1084B14
:1022400040221A6119B1074A1368002BFCD12046BD
:102250000021BDE81040FEF7ABB810BD00400E40B5
:1022600000300E40C800C64308B5FFF7BBFF044B63
:10227000D3F80831C3F308230133B0FBF3F008BDF2
:1022800000400E4008B50146FFF712FF184B994277
:1022900011D0184B994212D0174B994204D1174BC9
:1022A000D3F8800000F00700013803281ED8DFE8CB
:1022B00000F00A0A100D114BD3F88400F2E70F4B1F
:1022C000D3F88800EEE74FF4004008BD4FF47A7071
:1022D000FBE7FFF7C9FF094BD3F80031C3F30063F5
:1022E0005A1C01239340B0FBF3F0EEE70020ECE72B
:1022F000030020000500240002001E0000400E40E4
:1023000000F47810B0F5A01F08B56AD021D8B0F558
:10231000202F07D00AD8B0F5003F57D0B0F5802F56
:1023200049D0A8BBBDE80840FFF75CBFB0F5602FFF
:1023300000F08180B0F5801F00F08580B0F5402F5F
:1023400026D1FFF74FFF464BD3F81431C3F30423D4
:1023500038E0B0F5001F57D013D8B0F5D01F55D0D6
:10236000B0F5F01F38D0B0F5B01F11D13D48FFF7E0
:1023700089FF3B4BD3F8202102F00F020123934049
:1023800021E0B0F5381F36D004D8B0F5101F50D07A
:10239000002008BDB0F5401F41D0B0F5481FF7D16F
:1023A0003148FFF785FE07284DD008284DD0042876
:1023B000EED12E48EDE7FFF715FF294BD3F80C318E
:1023C000C3F308230133B0FBF3F0E2E7FFF70AFFA2
:1023D000234BD3F80831F3E72248BDE80840FFF764
:1023E00051BF2348FFF74EFF1D4BD3F8303103F0A8
:1023F0000303D840CDE71B48FFF744FF184BD3F841
:102400002031C3F30113F4E71A48E6E71948FFF750
:1024100039FF134BD3F82821C2F30112AEE7154858
:10242000FFF730FF0E4BD3F82831C3F301231A1DF9
:10243000A4E70F48D1E71048FFF73AFE072802D07B
:102440000928A5D16EE70D48A3E7FFF7CBFE044BA3
:10245000D3F80031C3F3042303FB000099E700BF66
:1024600000400E4002001E00B800320000F0490299
:10247000050024000300200006000E00C0EA210130
:102480001128F8B505460C4611D104290FD10021B9
:102490006248624EFFF7C4FE05F00F05013D072DAF
:1024A00065D8DFE805F0110660645E7E6489002669
:1024B000F2E75B4D013C092C59D8DFE804F0705974
:1024C0006058586758585856023C0A2C4FD8DFE8D5
:1024D00004F04340343A4E4E4E4E4E064600032022
:1024E000052401221146FFF725FD4E4D4B482F6C68
:1024F00041F671332B640021FDF738FF0FB1002343
:102500002B641EB1484A1368002BFCD1474B484846
:102510005C67FFF7F5FEFDF759FFFFF7A5FE0446E0
:10252000FDF776FF01462046FDF742FFFEB9304633
:102530000121BDE8F840FFF773BE3E48FDF746FFB6
:1025400002200446CDE73B48FDF740FF012403206D
:10255000C7E701200324C4E700200424C1E70724BF
:10256000C3E7354DA6E7354DA4E704232B60F8BD3E
:10257000012211460020FFF7DDFC0223F6E70122CD
:1025800011461046FFF7D6FC0123EFE7FFF76CFE7C
:10259000FDF71CFF2A4B01221A600323E6E7002304
:1025A000E4E7072C04D0092CE1D1204B012201E003
:1025B0001E4B00221A67DAE7013C072CD7D801A38B
:1025C00053F824F0172600006F2500006F25000047
:1025D000092600006F2500006F250000FB25000084
:1025E000E525000003221149D1F85C3123F03003C6
:1025F00043EA0213C1F85C31B9E701221146042015
:10260000FFF798FC0122EEE7012211460220FFF7B6
:1026100091FC0222E7E70022E5E700BF00F0490253
:1026200080400E4000000E40C800C64300400E40EF
:1026300000250A000148E80188400E4084400E4011
:102640000816C84338B5C0F30323013B04460D46C2
:10265000092B1AD8DFE803F032221A1905252819A8
:102660002B2F184B0022C4F3043442B11648D0F883
:102670004411C90703D4D0F840110A42FBD103F139
:10268000047304EBC3039B001D6038BD0F48FFF7C4
:1026900037FEFDF79BFE00220D4BE4E700220D4BB9
:1026A000E1E701220C4BDEE710220C4BDBE74FF495
:1026B00080320B4BD7E700220A4BD4E70022024BB3
:1026C000D1E700BFB0400E4000400E4000250A0098
:1026D000B8400E40C0400E40E0400E40E8400E4082
:1026E000F0400E4050410E402DE9F84F404E414D14
:1026F00096F800A0814688461746BAF1000F39D1F6
:10270000FEF754F83C4CA0F580502060FEF74EF8E0
:10271000A0F50060606001213848FFF793FF216851
:1027200008200431FDF780FD23681B68834208BF41
:102730002368616808BFD3F804B001F104014FF0C9
:1027400008000CBF4FF0010AD346FDF76DFD63682A
:102750001B68834205D163685B685B4506D800232C
:1027600005E0BAF1000FFAD1FF2300E001232B703E
:102770000123337095F900305A1C28D01E4ADFF827
:1027800080A052F823600C3635464FF6FF7BC5F328
:102790000A030833B3F5006F19D2AB885B4516D036
:1027A000A879291D0430FDF73FFD2B68EC88834292
:1027B000E4B202D1AB884B450CD0033404F4FE7470
:1027C0000834254486EA050313EA0A0FDFD0002007
:1027D00038700AE03B78A342F9D3224605F108019C
:1027E000404606F0AFF83C700120BDE8F88F00BF0E
:1027F000A815002010000020E406002000650A0053
:1028000000F8FFFF000000002DE98048A54B5B6841
:10281000ADB013F4806F24AF21D14FF000530022EC
:102820001A603846FEF780F8FDF7E8FF0546F0B974
:102830009D4B9E4E01225A64F36C1B0E54D19C4951
:102840009C484AF6E8520A60026842F004020260BC
:102850000B60994A136843F40053136046E04FF04D
:1028600000531A68022AD8D100221A60E0E79DF8C6
:102870009030012B31D1446BFEF784FE269B5E071E
:1028800014D5FDF7BBFFFEF73FF80446FEF7ECFC5E
:10289000002CCDD0FDF7B2FF0446FDF7AFFF874B0C
:1028A000986023689D4663689847C1E784B1FDF747
:1028B0007DFF84420CD2FDF779FF04F1400383428F
:1028C00006D8636923B12046FDF778FF0028D8D1E8
:1028D00005F58670FDF772FFD7E700F58670FDF706
:1028E0006DFF0028A4D0D5E7012BB2D0744A136A3B
:1028F00023F4441343F488131362A2F5804213684F
:1029000043F4807313606F4B02229A639A6B02F058
:102910000F02022A40F0E880DA6C22F0405222F0E6
:10292000010242F00102DA64D3F8EC2042F4407272
:10293000C3F8EC20DA6E42F08072DA66624B1868F7
:1029400000B10420FFF712FC604B5E4DC8221A80D4
:102950005F4BA0221A805F4B0F2000241880FDF7E8
:1029600095FD5D4BAB65CDE91C4424947C60D6F8A5
:102970006831C3F30722DBB226921E93EB6CC3F3DC
:10298000017A2246534639461CA8FDF7E7FDD5F8E3
:10299000EC30C3F3012922464B4625A91DA8FDF7BB
:1029A000DDFDDDF898C01E9A1C9D2498DDF874802A
:1029B000ACEB02014FF416735943B1FBF3F321461C
:1029C000259CD2184FF4167BA0EB050328BF0121EC
:1029D0000BFB03F3B3FBFBF3ED18A4EB08032CBFD5
:1029E0004FF0010E4FF0000E0BFB03F3B3FBFBF3B4
:1029F00018EB03082CBF01230023944574D300294E
:102A000072D1444570D3002B6ED1A8426CD3BEF175
:102A1000000F69D12B4CE36D23F4FE4323F0020336
:102A200043EA0223E3655046FDF700FD00285BD032
:102A300001214846FDF7FAFC002855D0636E454554
:102A400038BF4546E72D23F4FF7328BFE72523F061
:102A5000010343EA45036366E36B43F48063E36386
:102A60004AF6E853606B6363214623469A6FD507A5
:102A7000FCD41B6C194A13F0030331D001231360FB
:102A80008B6FDC07FCD40B6C23F003030B640D4944
:102A90008B6F13F00103FBD10128136008BF4B6358
:102AA0001FE000BF00500E4000000E40B081E00F5C
:102AB00090310E4098310E4064310E4000ED00E040
:102AC00000400E4000300E408009C643EE06002054
:102AD000F0060020EC060020372110B7B40AC643E8
:102AE0001360C54B01221A60C44C1120FFF7E0FAB5
:102AF000012200210220FFF71DFA636A23F001037F
:102B00006362BF4B00251D60A36A23F0070343F0F7
:102B10000603A362BB4BE362226BBB4B02F07F62F6
:102B200013432363B94B636304211120FFF7A8FC0F
:102B3000B74BB8481B68636A012143F04058FFF760
:102B40006FFBFDF765FC0146B248FDF731FCB1486B
:102B5000FDF73CFC012211460220FFF7EBF9C4F817
:102B60002480D4F8C83043F00103C4F8C830B36AF5
:102B7000A94E2CAA0424B36508A902F8984D352063
:102B80000895FFF7B1FD06238DF81730089B8DF8E7
:102B9000164013F4803FA14D0AAC00F05682B36D8D
:102BA0008DF82830B36D8DF82930B36D8DF82A304B
:102BB000B36D8DF82B30B36D8DF82C30B36D63F0A1
:102BC0003F038DF82D309DF82E3043F001038DF832
:102BD0002E306C60924B934A9A6000264FF48071BD
:102BE000C3E900221E8259618F4A904BDFF88C8224
:102BF0009A60C3E9002259612022314638461E827C
:102C000005F0ABFEFC2208238DF89320884A8DF84E
:102C1000913025928DF8A13040F20172F823ADF881
:102C20009A208DF8A330834A834B27924FF00109F5
:102C3000384629938DF8989000F066FC7F48804BC9
:102C4000036031467F4B436000F0CCFC68A3D3E9BE
:102C50000023C8F80000CDE900234FF0FF334FF008
:102C6000FF3200F0B5FE02224FF0FF31D8F800002D
:102C7000754C00F0B7FE754B2493394603F50033CD
:102C8000D8F800002696259300F014FD2146D8F8C8
:102C90000000267000F0D2FE464630B12146D8F83A
:102CA000000084F8009000F0C9FE3068DFF8D0A181
:102CB00000F032FF2178B5F90020306800F034FCD4
:102CC0000146306800F0AAFE6C68002C40F0D78105
:102CD0005046FDF78FFCB37B64F30003B3735C4B8A
:102CE0005C4CDFF8A0815C4D4FF0200983F8019324
:102CF000562283F80493002183F8069304F10A0016
:102D000083F8079383F8059383F8089383F81D935A
:102D100005F023FE5148524B4FF49072C4E9000372
:102D2000328425234F4A63720123137023720023D8
:102D30002CAAC8F800301B232B801E2302F89B3DD1
:102D400014A93620FFF7D0FC2CAA394602F89C9D26
:102D50003920FFF7C9FC80BB434B9DF8152018684C
:102D60001B7924903B71002A00F092811B2A28BF16
:102D70001B22531D8DF8143014A9531C0DF195001E
:102D80008DF8933005F0DEFD1CA8FDF733FC374AC3
:102D90009DF814301288FA522CA99A1C51FA82F22A
:102DA000002102F8201C1C98BDF8741042F81F0C7A
:102DB000093322F81B1C8DF814302CAA202302F8AA
:102DC0009D3D1CA93A20FFF78FFC48B9284B1A8873
:102DD0009B788DF872300323ADF870208DF8133096
:102DE000244B254800224FF00209C3E900224BE0A2
:102DF000081B1005000000009407C64300400E4069
:102E0000A004C8432000050007450BD047A00200DE
:102E100000300E4000F049020050084088010020B8
:102E2000580E0020700E0020580D0020400D00208C
:102E3000208A0000108A0000648A0000E01300204D
:102E4000690D0000D4130020140000203C00940001
:102E500000E100E0D40000207A010020D6BE898E77
:102E600055555500700F0020188B0000288B00006E
:102E70002B8B0000D006002064150020B01300202A
:102E8000B8130020AC030020AD4B036080F8049021
:102E9000FDF7BAF9AB48AC4B036080F804901023FF
:102EA0000372FDF7E5FDA948A94B0360A94B80F823
:102EB0000490C36080F80890A0F81090CDE9003924
:102EC0004B4690E806001430FDF77AF99DF815108E
:102ED000002900F0EE8014A8FDF7F4FD9E489F4BFA
:102EE00003604FF0100980F80490FDF78DF99C48BD
:102EF0009C4A9D4B03604FF6FE7B0823C260A0F8FE
:102F000010B080F8049003720393FDF7B1FD974869
:102F1000974A02600C220272964AC260A0F810B072
:102F200080F80490FDF7A4FD9348944A039B026047
:102F30004FF0020B924A80F80490C260038280F83E
:102F400008B0FDF795FD8F488F4B03608F4BC36032
:102F500080F804900123038280F808B0FDF788FD13
:102F60008B488C4B03608C4BC3604FF6FE7303821F
:102F700080F8049080F808B0FDF77AFD8748884B08
:102F80000360884BC3604FF6FE73038280F80490A1
:102F900080F808B0FDF76CFD834B844A1A604FF649
:102FA000FF729A809DF81420202A05D8931D63741F
:102FB00039467F4805F0C6FC9DF81320202A06D824
:102FC000931D84F839301CA97A4805F0BBFCFDF745
:102FD0004DFF237BB27B43F001032373237C02F07C
:102FE000010203F0F00362F386132374637C0BB9D0
:102FF00006236374704BBAF80410B068C4F812006A
:10300000998094F83830042161F3030362F3861346
:1030100084F8383094F8393013B9062384F83930FD
:10302000664BB068BAF80420C4F83A009A80FDF7FD
:1030300079FF634C634B1B78002B7BD1624A136989
:1030400023F00403136130BFF4E70DF117022146AA
:103050002C20FFF749FB00283FF4BCAD0DF1160210
:1030600007A93C20FFF740FB9DF82E3020B19DF8CA
:103070001C2062F30003AAE560F30003A7E52068C3
:10308000B060A288A3798AF80630AAF8042026E660
:103090000E238DF814300A238DF893304B4B1A68A9
:1030A000CDF895205A681B7ACDF899208DF89D307F
:1030B0006AE6092145480FE7EFF3108672B6002350
:1030C0001A460DF119014248FDF7C2FD3046FEF7E0
:1030D0003BF89DF8193013B10023C8F80030D8F838
:1030E0000020EFF3108672B6C2F501739BB2224442
:1030F0000DF119013648FDF7ABFD03463046FEF7EA
:1031000023F8D8F8000018440328C8F8000011D9A3
:10311000B4F8009009F1040398420BD307D86088F3
:1031200004284FF0000755D0062800F0C381002383
:10313000C8F800302648FDF7BBFA0028BCD17DE76F
:103140002F8B000010050020328B0000F4060020B9
:10315000358B0000F689000084150020388B0000B4
:1031600068050020AD120000498B0000C00500205A
:103170005A8B0000511C0000080400206B8B0000DB
:10318000A88A0000180600207C8B0000AF8B00008E
:10319000600400208D8B000081090000B003002036
:1031A0009E8B0000A50C0000D8060020D006002051
:1031B000EC00002014010020E60000200E01002099
:1031C000A8010020CC06002000ED00E01E8B0000CE
:1031D000400D002022796F8009F1FF33082A9BB24D
:1031E00000F0DF801BD8042AB74E39D0062A4ED013
:1031F000022A1AD1022B40F05981B4F8057000223E
:10320000B7F5007F28BF4FF4007703231146022053
:103210003370A6F80170FEF713F82F8087E7102AA5
:1032200000F0F48003D80A2A70D0062294E0122A13
:1032300000F09B80522AF8D1B4F80500FDF7B0FBEE
:1032400000283FF474AF037B5B077FF570AFA9F1F3
:10325000030292B29D49B4F80500FDF7EFFB66E763
:10326000042B79D1B4F80570B8B2FDF799FB58B1C9
:10327000027A41687780022A14BF022301230520C5
:103280003070737003205FE06F800A2264E0DFF823
:1032900040B2B4F80500B4F80710CDF840B04FF0D4
:1032A0000203A9F107028DF8443092B20BF1020338
:1032B0000093019210AB0CCBFDF714FD4FF6FF7A93
:1032C0005045814604D16368C3F30F236B80DCE76C
:1032D000CDE900774FF002038DF83430CDF830B0EF
:1032E00001300CAB0CCB514680B2FDF7FBFC5045D6
:1032F0001CBF00F1FF3080B207233370A6F80190A5
:10330000A6F803000022114604201DE0022B40F025
:10331000CD80B4F80500FDF743FB00283DD0037BCA
:10332000990714D52B882CAA013B22F88C3D10A9B3
:10333000B4F80500FDF75CFB024648B9624BBDF8E6
:1033400024200B2119701099FDF77AFFEFE6022275
:103350006368C3F30F236B805B4B207969885870D7
:1033600001261E7059801A71CCE7B4F80500FDF7EC
:1033700017FB90B1037B1A0711D5A9F1030292B292
:103380005249B4F80500FDF759FB02460028DFD189
:103390004D4B132119700146D6E70122D8E70322CD
:1033A000D6E7A9F1050B1FFA8BFBBBF1020F02D088
:1033B000BBF1100F7CD1464BB4F80500B4F80710F0
:1033C00010930023CDE900338DF844B010AB0CCB43
:1033D000FDF788FC4FF6FF73984206463FF473AF43
:1033E0002B882CAA043B22F8963D09A9FDF700FB87
:1033F000024608B16E80AFE7334BBDF81A205E80FD
:1034000009211970911C597009993BE7A9F1050B25
:103410001FFA8BFBBBF1020F02D0BBF1100F47D19B
:103420000027B4F80500B4F80710DFF8A4A0CDF821
:1034300040A0CDE900775FFA8BFB8DF844B010AB6C
:103440000CCBFDF74FFC4FF6FF79484506463FF49D
:103450003AAFCDE90077CDF838A08DF83CB0013017
:103460000EAB0CCB494680B2FDF73CFC2B882CAA56
:103470004845A3F10603074622F8963D18BF00F120
:10348000FF3709A9304618BFBFB2FDF7B1FA0246AF
:103490000028AFD10C4BBDF81A205E8011211970A5
:1034A000111D59709F80099905204DE7042253E7AB
:1034B000024651E7074B109310A90223CDE912777A
:1034C0001193FDF795FE32E67E010020AF0100204A
:1034D000B101002011000020FEE7000008B5FEF752
:1034E00073FE064B0649074A8B4201D3FCF72EFEBA
:1034F00052F8040F43F8040BF6E700BF1000002059
:10350000B80000200CA7000038B5044600F0A6FA69
:103510000FCC044D0FC594E80F0085E80F00002084
:1035200038BD00BFB018002047F6FF739A4270B54F
:1035300052D0022952D82A4B13F8310001281D46D7
:103540004FEAC1010CD10B44D878013800B220B148
:10355000596831F910109142F7DC0130C0B270BDEA
:103560000B4458680028FAD0B0F90040944204DBBC
:10357000B0F902409442B8BF144629442822497841
:10358000A4F1C80393FBF2F35B424A1E1BB29342C1
:10359000A8BF13464FF47A7600EBC3050133EA88DF
:1035A000AD681BB214FB025222EAE2728B4202F5B2
:1035B000FA72B2FBF6F204DA00EBC305AD8895426D
:1035C000EAD200EBC30333F8040C904228BF104644
:1035D000002808BF0120C1E7FF20C0E70020BEE7A8
:1035E000B018002038B5084B04460D46186000F0AE
:1035F0003BF82946204600F027F8044B021C18BF70
:1036000001221A7038BD00BFD0180020D418002045
:103610000846114600F03CB800B10C3001F0DEB9AC
:1036200000B10C3000F0E2B97047431E012B03D902
:10363000031F5842584170470120704708B500F0F9
:1036400097FB0128FBD108BD38B504460D46002183
:1036500000F0E2F92946204601F048F800280CBFA6
:103660002046002038BD000010B5044600F048FB9D
:103670003CB1054A236C002B08BF1346034A136074
:1036800010BD636BFFDE00BF293600001C00002068
:1036900010B50C4600F056FB1CB1BDE81040FFF71A
:1036A000CDBF10BD00B10C3000F0C8BC00B10C3073
:1036B00000F0DCBC00B10C3001F080B8836A2DE969
:1036C000F74F0446884613B1C3888B4246D0D4F8DE
:1036D0002490B9F1000F45D0D9F80830002B41D023
:1036E000D9F80C30002B3DD00026B24637464FF0BB
:1036F000180B47F6FF73D9F80C20524502D80FBBC0
:1037000001202CE0D9F808500BFB0A55EA89424504
:1037100013D82A8A424510D3B5F912209A420FD005
:1037200094F864100193A4F10C00FFF7FDFE019BD7
:103730000646E278B2422F4604D90AF1010ADAE7D6
:10374000FF26F6E704F170033A464146204600F0B2
:103750002AFDA4F80680A76284F86D60002003B0FB
:10376000BDE8F08F0320FAE72DE9F74F4A4D4B4FA4
:1037700004468A4690469B4601F048FA2E8801F09E
:1037800063FA009578B100233B6001F055FAA36A13
:103790003A6893420CD15BB1564509D100252846C1
:1037A00003B0BDE8F08FB8F1000FF0D03860EEE75D
:1037B00000F0DEFA012804D0012000F0C3FAFFF780
:1037C0003DFF374801900368D4E90912002B5BD014
:1037D0008B4245D13868002842D0904240D1B6EBA8
:1037E0000A064FF0000918BF01264D46E07894F80C
:1037F0006D10814228BF01465A46204600F092FCD7
:10380000BDB9019B626A1A60A26A3A60B8F1000F02
:1038100003D116B9B9F1000FC0D0009BB8F1000F69
:1038200014BF414649462046C3F800A000F0ECFC16
:103830000546B8F1000F02D1B9F1000FAFD0B5FACB
:1038400085F03321400900F04FF95946204600F039
:10385000BFFE144BA16A1B68A4F10C0098479EE7B9
:103860001D688DB1086885420ED13968126811B1A2
:10387000096891420BD05968204600F09DFE4FF038
:10388000010905460026B1E712680968F4E7002639
:103890004FF001093546A9E7D8180020E0180020AC
:1038A000DC1800201C000020F8B505460E46FDF788
:1038B00043FC314607462846FFF700FF044630B96F
:1038C0000346024631462846FFF74EFF0446384677
:1038D000FDF73AFC2046F8BDF8B50F1C18BF0127CC
:1038E0000D4606461F21384600F0FEF80024284603
:1038F00000F06CF938461F217562B46200F0F4F8EC
:10390000E86823464FF6FF711827DAB282420BD3DC
:103910000C460B4A002313600A4A214630461360C6
:10392000FFF7C2FF2046F8BDAC6807FB0242D4890E
:103930008C4202D2002CECD021460133E5E700BFD7
:10394000DC180020E0180020C088704738B50A78DD
:10395000054610460C46FFF768FE88B149780846D0
:10396000FFF763FE60B10A43520709D400F000FA82
:10397000430707D421462846BDE8384000F090BBF5
:10398000012038BD0220FCE700B10C30FFF7DEBF9C
:1039900038B5054608780C46FFF747FE80B14A78EF
:1039A0001046FFF742FE58B1042A09D000F0E0F9B2
:1039B000830707D421462846BDE8384000F07EBB87
:1039C000012038BD0220FCE700B10C30FFF7E0BF5A
:1039D00030B4DDE9024500B10C30CDE9024530BC20
:1039E00000F042B900B10C3000F07EBA70B5044668
:1039F0000D46164600F0BCF901280BD12946204699
:103A0000FFF752FF38B9324629462046BDE87040DC
:103A100000F0DEB9022070BD01F01EB938B50446D1
:103A200000200D4600F0CFF834B104F10C00294617
:103A3000BDE8384000F095BB2046F8E738B50446AD
:103A400048880D4600F0BFF834B104F10C00294657
:103A5000BDE8384000F042BB2046F8E700F0B4B8BB
:103A600000B10C3000F001BD00B10C3000F017BD0A
:103A700007B502AA4FF4007322F8023D0749FFF789
:103A8000F3FFBDF80630B3F5007F05D1022808BF6B
:103A9000002003B05DF804FB0120FAE7E4180020E1
:103AA0000846114600F014BC00B10C3000F0C8BC50
:103AB00038B5154658B100F10C0411B1204600F09C
:103AC00005FD35B12046BDE8384000F049BD04464B
:103AD000F3E738BD024B1960024B1860FEE700BFE8
:103AE000200000202400002008B528B9034B1960ED
:103AF000034B1868FFF7EEFF08BD00BF2000002051
:103B0000D018002010B5044601F0ECF8204603213F
:103B1000BDE8104000F000B900B10C30FFF7F2BF73
:103B200010B54378044643B100F022F9012804D1CE
:103B30002046BDE8104001F0C1B8022010BD00B120
:103B40000C30FFF7EDBF10B54378044643B100F0E9
:103B50000FF9012804D12046BDE8104001F09AB8C1
:103B6000022010BD00B10C30FFF7EDBF70B51E464E
:103B7000437804461546DBB191FAA1F1080A00F03A
:103B8000ABFAEB0703D5204601F0B5F870B1AA20D7
:103B9000294601F0B3F89DF81030204683F0010368
:103BA0003246442101F0CCF8002070BD5520EFE7EB
:103BB0000220FAE710B49DF8044001940C305DF83F
:103BC000044BFFF7D3BF704770470000044B5868A1
:103BD000431C14BFC0F3807001203121FFF784BF64
:103BE000B081E00F024B1B6803B11847704700BF5C
:103BF000E41A002070470000F7B506460C46174D42
:103C000039B90A46072104F0C7F8C5E9004403B0F2
:103C1000F0BD134B07271F600B792B7002A84B795F
:103C200040F8043D012104F0D3F8019BC2B2D34017
:103C300000F00F0040EA03106870A379AB70E379DD
:103C4000EB7023686B602379064A01339361394630
:103C50003A46304604F0A0F8D9E700BF401F0021E3
:103C600004000844000008402DE9F34BDDE90A6731
:103C7000D0E92289044689EA070188EA060001EAB8
:103C8000030C00EA020B8CEA09018BEA0800C4E984
:103C9000220122F0010006EA000807EA03090025D4
:103CA0001946CDE9005549F0080348F0005203F0E9
:103CB0006BF92378DB071CD5D4E92223002003F01D
:103CC000080150EA010314D04FF48031204601F07E
:103CD0005DF8D4E9222302EA000503EA010655EA69
:103CE000060306D005492A4609683346A4F10C00AC
:103CF0008847002002B0BDE8F08B00BF28000020FC
:103D0000034A0368002B08BF1346024A136070473A
:103D1000F53B00002800002031F00F0001BF054AEC
:103D2000136801F00F0123F00F0306BF0B4313606C
:103D300001207047481F0021014B00205960704747
:103D4000481F0021032811D8DFE800F00E02070AFF
:103D500000221146012003F0F1BC00220121F9E705
:103D6000012211461046F6E70022FAE770470000EC
:103D70000F4B5B68C3F30363013B0B2B0DD8DFE8EC
:103D800003F014140614141414080A080808032075
:103D900070470420704705207047064BDB6813F01E
:103DA000060F14BF0420012070470220704700BF97
:103DB0000040084000500840044BD3F8883013F00E
:103DC000A00F0CBF01200020704700BF004008403A
:103DD0007FB51546B0F84C202B792968012B1BD1F3
:103DE0008A421ED8891A1A1C18BF01222C7B022C69
:103DF00019D00034AB6818BF0124AE7B003618BF61
:103E0000012602966D7BB5FA85F56D09CDE9004571
:103E100003F098FA04B070BD022BE3D11A460021DA
:103E2000E4E70021DFE70023E7E700000138C0B244
:103E300002289CBF0F4B53F820200F4B4FF06051CE
:103E4000196003F1007388BF00221A604FF400125A
:103E50001A600A4A136F23F0060343F00403136742
:103E6000074B4FF0805119600423C2F884300020C2
:103E7000704700BFEC8B0000186008440000084049
:103E800094400846114B1B7813B1114B06221A605F
:103E9000104B0022C3F884200F4B4FF080521A6061
:103EA0000E4BD3F8883013F4800F0D4B09D1826983
:103EB00012F0800F18BF0B494FF4001214BF0A60B4
:103EC0001A604FF060521A6000207047EC1A002010
:103ED0007000084400000840944008440040084036
:103EE000186008441860084670B51446826982EA72
:103EF00004030B4053400646836108070D4606D570
:103F000014F0080F14BF424A424A08231360E9071D
:103F100006D514F0010F14BF3D4A3E4A0123136039
:103F20006A070CD503F0CCFA14F0040F14BF3A4A18
:103F30003A4A4FF400731360394B04221A60AB07FE
:103F400006D514F0020F14BF314A324A022313601F
:103F5000E80606D514F0100F324B14BF00221B22C6
:103F6000DA6429061FD522062DD52F4B4FF40012F7
:103F70001A6003F17E43E03301221A60FDF7DCF89A
:103F80002A4B5B68C3F30363032B06D1284A1368EB
:103F900023F0F00343F0E0031360224B40F20122D0
:103FA0005A62FDF7D1F815F0600F29D004F06004D3
:103FB00004EA050140291E4B24D0602914D0202991
:103FC00023D1012218E0194BD3F888305B02EAD4E0
:103FD00096F84030174A4FF400111160002BE2D0E0
:103FE000154B01221A60DEE7F26A72B111680129ED
:103FF0000BD9526942F001021A610C4B80229A607F
:10400000002070BD40F20112F6E70022F4E700BF85
:1040100044000846440008441C6008461C600844EC
:1040200088400844000008401860084600400840E6
:10403000481F002118600844F8600846014B986941
:1040400002F066B900600840C36A53B11A68022AD8
:1040500007D9586AC0F3072030B11B6AB3FBF0F0F0
:1040600070470C38FFF71EBB70470000014B986982
:1040700002F064B900600840C26A62B11368022BA2
:1040800009D9536AC3F3072040B1126ADBB2534324
:10409000B3FBF0F070470C38FFF708BB7047000027
:1040A00010B5054A4B780C7810881B0643EA044388
:1040B00003431360002010BDF41E0021054803686F
:1040C0001A0C0B78120413434A7843EA0223036064
:1040D00000207047F41E002102F084B970B5044638
:1040E00000F16406086860668B88A4F868308B88E5
:1040F000C4F8F430FF232371084601F087FC05461D
:1041000070B9304601F0A8F9054648B9204601F0DB
:104110009DFB0121A4F8680004F13C0002F064FC5E
:10412000284670BD38B5054690F8640003280C4653
:1041300013D0FF2913D001F019FAA04204D895F842
:10414000640001F013FA04462C71204601F0BEFA17
:10415000A0F1FF035842584138BD0220FCE701207E
:10416000FAE710B590F86430032B044619D0E170DB
:10417000836A93B190F86D308B4209D20023836239
:10418000FFF7E2FB01462046BDE81040FFF78CBB7D
:104190000022BDE81040FFF7C5BFFF22027118469C
:1041A00010BD0220FCE7F8B51C46154607460E4632
:1041B00002F0E8F987F86C00A9896B682360761A29
:1041C000268102F039F8AB6897F86C20000BC0EB41
:1041D0008040B0FBF2F0B3EBD01F88BF216822898A
:1041E00091BF636003FB02112160002188BF616001
:1041F0003F2A08D9216890099B0100FB031302F0B4
:104200003F0223602281F8BD036A012B2DE9174884
:10421000044625D049B101A904F1700002F0C6FAA4
:1042200068B1022003B0BDE8108802F09FF9236F47
:104230009842F0D102F0A0F9636F9842EBD10121CE
:10424000B4F8780002F05EFA23786FF3000323706D
:10425000A36A5B6919684B1C04D0204601F0E0F8A2
:104260000020DFE7D4E92223002003F0080150EA10
:10427000010304D1237843F001032370F0E74FF4E6
:104280008031204600F082FDD4E9222302EA000BAF
:1042900003EA010C5BEA0C03E2D004495A460968C0
:1042A0006346A4F10C008847DAE700BF280000202D
:1042B0004FF4807103F082BD4FF4807310B9024A4D
:1042C00013607047014AFBE788400846884008446D
:1042D00037B50DF106020D4600F0D8FF044688B14F
:1042E00085B12B7813F0F70F0CD0FCF725FF074BA7
:1042F000BDF806201C60064B1A80064B6A881A809F
:10430000FCF722FF204603B030BD00BFF01A0020AA
:10431000F41A0020EE1A00202DE9F7430646154650
:10432000084619B9012003B0BDE8F083002AF9D08E
:10433000022905D80022114600F0A8FF0028F1D07C
:10434000038882781C0402F0070175D4A1F1070CE0
:10435000077990F80580C488DCF1000040EB0C0080
:104360002873C2F300106873C2F380102874C2F37C
:10437000C000C2F340126874AA745FBB96F85E2056
:10438000013AEA74B269D20650D4063901294DD8EF
:104390002A4A063BD26C9BB206226946012000F0F5
:1043A000E1FDE3049DF9007017D49DF8010044007D
:1043B000E0B2B36B0BB139469847E873AF736A7CD0
:1043C000DDF80210304602F01EFC012328602B723B
:1043D0000020A8E7013FEF74D4E7F36AC4F30B04AD
:1043E000E4008BB11A68022A0ED95B6A13F0FF034E
:1043F00001D0B4FBF3F4A04514D8ACB1C8EB082845
:10440000B8FBF4F4E443D3E73046FFF71DFE8146E2
:104410003046FFF731FE0028EDD009FB04F4B4FB71
:10442000F0F4E8E70020C4E72046C2E7002080233C
:10443000EB812860287276E7022074E700000840CC
:10444000F8B506461446177AFFF766FF054650B9D9
:10445000237A43B127723046FFF70EFE224601460B
:10446000304602F09FFB2846F8BDB3FA83F3192BC0
:10447000084610B5114610D0C3F11902D2B2062A6F
:1044800028BF0622931D01249C40A4B2A14228BF4C
:10449000214600F0E5FC204610BD0022F2E7084668
:1044A0001188B1FA81F1192910B50DD0C1F11901A6
:1044B000C9B2062928BF06218C1D0123A340138001
:1044C00000F0EAFC002010BD0021F5E7094B0121B6
:1044D000D3F8EC20996203F18063243352074FF440
:1044E0000051196041BF03F10073C83304221A6000
:1044F000704700BF0010084038B54B7805460C46A1
:10450000C3B9FFF7BFFCA378C3B9114B40F6FF72E4
:104510005A62E378B3B90E4B40F6FF725A6503F165
:10452000C063A3F6BC7360221A600A4B40221A6073
:10453000002038BD1846FFF779FCE4E72846FFF76E
:10454000C5FFE6E7044B60221A60044BEEE700BFAC
:104550000010084088400844440008448840084649
:1045600038B50C4BD3F8EC5003F18063EC334FF4C7
:1045700080641C60084B0020186003F037F8074B7C
:104580004FF400521A606A0542BF03F1007398337A
:104590001C6038BD00100840F01A00205410084478
:1045A000082310B1024A13607047024AFBE700BFBC
:1045B000884008468840084410B508461446012142
:1045C00001F048FE2046012101F044FE002010BD0C
:1045D0002DE9F047374F0446894601F0D3FF3B6889
:1045E0008342804601D001F0EFF9334B3349DD6857
:1045F000334BE562D3F8842012F4E05F04BF20223D
:10460000C3F81022D1F8A0302E4AC3F381231370CF
:10461000D1F8A4306189C3F3812353704FF6FF733F
:10462000994204D0284B1B680BB120469847274E6F
:10463000D4F82CA033689A4511D02046FFF71CFD12
:1046400002F02AF9BAF1000F17D0DAF80030A3B15E
:10465000DAF810308BB15A681B686264E363336820
:10466000AB420FD01A4B1B682BB14DB1296801B179
:10467000A96820469847072505E000236364EDE715
:104680002946F6E70125204601F0E0F8B9F1000FD0
:1046900004D1294604F13C0002F0A6F9E36A336034
:1046A0000C4BC7F8008006221A600B4B01221A70CF
:1046B000BDE8F087001B0020EC1F0021000008402F
:1046C00000600840FC1A0020041B0020F81A00209B
:1046D000E81A002070000844EC1A0020482200214B
:1046E000014804F03AB900BFF81E00212DE9F0435B
:1046F000894685B00446002858D0002343620393BE
:10470000A36363654FF06413C4E9163323664FF463
:104710007F434FF6FF7200214FF0FF38E38100F135
:104720000C07234BA4F8EE200020C4E92501C4F8AF
:1047300000812274A4F8168011201A80FDF7B8FCBD
:10474000042831D11B4B5E6816F440362CD1384614
:1047500002F012FF3846FFF7C1FF174B60225A6480
:1047600003A93846FFF7C8FE626A05464146384647
:10477000FFF7BAFB4FF00052082310461946CDE967
:10478000006602F001FC00F0D7FE4DB92046FFF7AD
:104790006FF90546B9F1000F02D008B92046C847A5
:1047A000284605B0BDE8F0830225F9E7A061FFDEE9
:1047B0000C1B002000300E400000084070B50C4675
:1047C000054600F13C0609884C3002F0F1F861889A
:1047D000208005F1540002F0EBF8A188608005F11B
:1047E000520002F0E5F8E188A08005F1500002F0E7
:1047F000DFF82189E080304602F0E6F86189208107
:10480000304602F0E9F807216081304602F0ECF80A
:10481000002070BDB0F8E2304FF6FF72934211D025
:10482000094A0A49D26D100CC2F301120880013204
:104830000749B3FBF2F3074A074808601B041360FB
:104840000020704703207047006008400C1B0020C8
:104850005C6008445C6008460000FFFF73B50546D5
:104860000E461446FFF7A8FA002800F09C804FF48B
:104870000061284603F0A2FA38B101210846FEF78C
:1048800007FF4A4B4FF400721A6031462846FFF783
:104890000BF80646002864D1454B4FF440621A607D
:1048A00014F0020204D1434B43491B789B020B6076
:1048B000424B4FF44061196022B93E4B404A5B784D
:1048C0009B02136002F0FCFD14F0040F14BF3D4A7C
:1048D0003D4A4FF480631360344B042214F0400FC0
:1048E0001A6014BF394A3A4A4023136004F018038F
:1048F000182B384B38D100225A612846FFF7D8FCD4
:1049000018B104F00100FFF7D7FCA00602D5284635
:10491000FFF780FF284600F0A7F9F8B12846FFF717
:10492000C7FCD8B14FF40031284603F047FA0028FD
:104930000CBF01230223032201A9002000F012FB77
:104940009DF80410244A01F00703052B9DF805305B
:104950001FD1090711D443F4807353600020FFF77F
:1049600032F9304602B070BD210701D50122C3E7FC
:10497000E206C0D540F20112BEE713F0040F08BFF3
:104980009DF80630144A0CBF43F480734FF48073D3
:10499000E3E703F03001202902D113F0010FEEE725
:1049A0009DF80630D9E70226DBE700BF88400844BF
:1049B000A0000844FC1A0020A0000846A4000844F7
:1049C000A40008461C6008461C6008448070084625
:1049D00080700844481F0021E01E002173B5064680
:1049E0001D46FFF73BFF044688B995E803006A4679
:1049F00082E803009DF80430B6F85210012B0346FC
:104A000007D1884205D20094104602F01BFD02B087
:104A100070BD5B1A0093F7E7094A13884FF6FF71E0
:104A20008B4210B509D00748074C046000F10070B4
:104A30001B0403601180002010BD0320FCE700BFB1
:104A40000C1B00205C6008440000FFFF0000000019
:104A50005D4B2DE9F3471C6881468A46154604B133
:104A60000C3457A1D1E9000100EA090201EA0A0366
:104A7000134367D009F48010002150EA0102534B20
:104A800018BF534AD3F81C3118BF136009F4001043
:104A9000002150EA01021CBF4E4A136009F0005287
:104AA0000023134309D04C4B1B6803F07F43B3F141
:104AB000007F02BF494B02221A6009F00102002365
:104AC000134330D04FF000080022002300210120C2
:104AD000CDE9008802F058FA012001F051FC41466E
:104AE00020810120FEF7D4FD3D4BD3F888305A02D7
:104AF00008D4A36913F0800F14BF3A4A3A4A4FF41E
:104B000000131360394B1A683AB139496FF0FF004E
:104B1000086001F1007102400A6000221A602378E7
:104B200043F00403237000220AF00803134309D062
:104B30000121204600F02AF92AF0080749EA000975
:104B400047EA010AD4E9222309EA02000AEA03013A
:104B500002460B46134306460F461CD0254BA4F1D4
:104B60000C0019683B468847194A4FF0FF33136021
:104B7000184A136006F00802002313431EBF1E4BA1
:104B800000221A601D4A002316401F4056EA070300
:104B900001D0FFF741FFEB070DD51949194A086805
:104BA000136800211160184A012111701BB102B075
:104BB000BDE8F047184702B0BDE8F087AFF30080CA
:104BC0000100302008000000D018002000500840EC
:104BD000300000202C000020F41E00210040084678
:104BE000004008401860084618600844081B002070
:104BF0001870084428000020F01A00200000F02F50
:104C0000141B0020101B00200E1B002008B5084BB1
:104C10005B685A1C0BD05B0009D40320FFF792F8A5
:104C2000044B4FF080621A60012243F8882C08BDC3
:104C3000B081E00F94400846024B4FF400221A6006
:104C4000704700BF88400844024BD3F88800C0F387
:104C5000C040704700400840014B024A1A6070474C
:104C6000E81A0020F93B0000802103F0A7B80000FB
:104C700008B54378033BDBB2032B96BF044A0021FF
:104C8000D15CFFF759F80120BDE8084001F00EBAE9
:104C9000F88B000010B5012380F840302823A0F8DD
:104CA0004A300423044643700349FEF715FE2046AC
:104CB000FFF7DEFF002010BD848F000010B5012338
:104CC00080F840302823A0F84A300223044643707D
:104CD0000349FEF701FE2046FFF7CAFF002010BD82
:104CE000288E000010B50446FFF7E8FF2046BDE817
:104CF0001040FFF7BDBF0020704700000D4A11664D
:104D0000D36D552823F00F030CBF43F0010343F08C
:104D10000203D36591FAA1F390FAA0F1090B01F413
:104D2000702141EA1341044B044A1A6003F10073F5
:104D30001960704700600840FC600844FFFF0F00E6
:104D40000D4810B5072404600C480D4C6BB142F0BF
:104D50004002C162012302630A4A23604FF4804388
:104D6000136053609360D36010BDC362064A03634F
:104D700023604FF48043F3E7340008440000084008
:104D800034000846A0000844A000084638B505468F
:104D90000C46FCF7D1F969692B690C4023432B6160
:104DA000FCF7D2F900200CB9002138BD0821FCE73E
:104DB0000A4B0B494FF48032C3F8E8200A609A6B23
:104DC000D1B2C2F3072299679A6704229A67002238
:104DD0009A679A679A679A679A67704700100840BF
:104DE000EC1008462DE9F74F00EB4000040104F1F8
:104DF000804404F501241D4626689DF83030019357
:104E000006F00706B31D01269E40771E8A4663689A
:104E100005EA0701A6EB010843F0005B4245914615
:104E2000594418D94246504603F08CFDA9EB0802BC
:104E300059460AEB080003F085FD019B43B14D4440
:104E40003E433540E560A368AB421CBF0223A3622A
:104E500003B0BDE8F08F504603F074FDEDE70000AD
:104E600038B50C4C226060600D46FCF765F9D4F84B
:104E7000E0305B0758BF04234FF00002E260A560FA
:104E800058BFC4F8E830FCF75FF90DB10223A36204
:104E900038BD00BF00100840044B1860044B40F6BA
:104EA000FF72196058605A62704700BF181B0020DB
:104EB0003010084000EB40002DE9F84F040104F1E8
:104EC0008044042A04F5012406D8013A032A2DD887
:104ED000DFE802F044413E3B0B78A3614B78A361CD
:104EE0008B78A361CB78A3612768D4F80880D4F8C5
:104EF00004A007F00707BB1D01279F4007F1FF39FA
:104F000009EA0800161FA7EB000B5E4501F1040536
:104F10004AF0005A0CD829465044324603F012FD9C
:104F200006EB080249EA07073A40A260BDE8F88F9D
:104F30005A462946504403F005FD05EB0B01A6EB4C
:104F40000B02504603F0FEFCEAE70B78A361013147
:104F50000B78A36101310B78A36101310B78A36158
:104F6000BDE8F88F37B5002500951446FFF73AFFE6
:104F7000204603B030BD3023584300F1804000F597
:104F80000120006AC0F30C0070470000402938B5CA
:104F900014464FF001030DD8084D0A46C5F8B83045
:104FA00001460320FFF786FF34B10423C5F8B8306B
:104FB000002038BD1846FCE72046FAE700100840FC
:104FC00010B5FCF7B9F81C4B1C491D4C01229A6521
:104FD000C3F888200A604C6007244C6219490C8091
:104FE000194C002121804FF4A024C3F8E84003F1BC
:104FF000C063EC331C60154B1960154BD3F8883037
:105000005C0212D5134B14491B684FF480040C60EA
:105010007BB1596A090608D493F84C300F494FF414
:1050200000140C600BB10E4B1A60BDE81040FCF789
:105030008BB89B69FFDE00BF00100840601008407D
:10504000201B0020A21B0020A01B0020A41B00206E
:1050500000400840D01800208840084418600844E8
:10506000F86008460C4B07221A800C4B00221A806D
:105070000B4B1A604FF4005258605A62094BF022F1
:105080001A6003F10073A0221A60074B0122C3F8D3
:10509000B820FFF795BF00BFA21B0020A01B002077
:1050A0009010084040000844001008402DE9F041ED
:1050B000044698B1424EFCF73FF83188414BDFF887
:1050C00028C101F07F0202F07807022C05461F4438
:1050D00063D1DCF8004024B9FCF736F80320BDE8C2
:1050E000F08124F00104DCF8000020F00100A0426F
:1050F00057D10023CCF8003023886FEA43436FEA8E
:105100005343BC42238043D12F4ADFF8E0C01388C9
:10511000ACF18008CF18083B9BB204F10801F81AE3
:10512000614528BF4146082B80B204D9B1F900E09F
:10513000BEF1000F40DB138022882449A778C2F318
:105140000C02CA63C2B222483280C2604362D1F804
:10515000E030D90307F0070701D5FFF729FE042F38
:1051600016D11C4B1C4AD3F888301C4B1B684FF4DB
:105170008001116013B35A6A120609D493F84C30B7
:10518000174A4FF40011116013B1164B01221A6037
:105190002846FBF7D9FF0020A1E7012C08BF3C46B9
:1051A000A1E7A21AD31A084A128848BF8033083AE6
:1051B0009A42A1DC28468FE70C46ACE79B69FFDEEC
:1051C000A01B0020201B0020A21B00200010084074
:1051D000601008400040084088400844D018002073
:1051E00018600844F8600846A41B0020A01B00209B
:1051F0000D480E4A038812880D491A44073A02F0F6
:1052000078020A4408339BB203809078094900F081
:10521000070004284B6203D107494B681B03FCD4E9
:10522000064B1A60704700BFA21B0020A01B002085
:10523000201B00206010084000400840A41B0020F4
:1052400010B5054C206828B1C30701D4FFF72EFF25
:105250000023236010BD00BFA41B0020094B4FF4A6
:1052600080321A60084BC3F8E420D3F88020C2F3E0
:105270000C02782A05D8D3F8E030DB0301D5FFF71C
:1052800097BD7047EC100844001008402DE9F04726
:1052900005460F461446FBF74FFF514B514E1988F8
:1052A000824601F07F03504803F07802022D024449
:1052B0001BD14E4DB6F800C02D689DB901EB0C0511
:1052C000073D05F078050544EB1A1B1A318848BFE5
:1052D000803399420DDC5046FBF736FF0025284607
:1052E000BDE8F08725F00105EEE7012D08BF154662
:1052F000EAE70FB9002C45D095423D4946D1CE682A
:10530000B6B204B126800A68002F3BD002F007092C
:1053100009F106024FF0010909FA02F9354AD2F8FB
:105320008020C2F30C029A421FFA89F840DD2B88D4
:105330009CB21B04CFD4AB78C4F30C0408F1FF3249
:1053400003F00703A41B48EA02021440052B3B703C
:10535000A4B225D824B2E0430421C00FFEF7C4FB59
:105360007C8008F1FF331E40234B1B68A4B29A19BE
:10537000BA6032194A45CBBFA8EB06060023BE80AF
:10538000BC80FB605046FBF7DFFEA8E7A5F10802F2
:10539000824238BF05F178021688C6F30C06B0E7E2
:1053A000164BDB6C002B14BF06230023E41AD1E755
:1053B0008A6808F1FF33921B48EA03031340104A3E
:1053C0009BB21CB2526843B9C2F30362032A14BFF2
:1053D000002208223A707B80C3E70822FAE700BF68
:1053E000A01B0020A21B0020201B0020A41B0020CB
:1053F0003010084000100840181B00200000084032
:1054000000400840431C08D0044AD2F83C311B0C31
:105410001B0480B20343C2F83C317047004008408F
:1054200010B504460846FFF7EDFFA36A13B15B69A8
:1054300003B11960002010BD38B50D46044600F0D8
:10544000FBFEAC4042F2107164094C436423B0FB94
:10545000F3F0B4FBF0F038BD034B1A6802609B8890
:1054600083800020704700BF3E0000200B4B5B880C
:10547000B3F5E16F95BFC8235A2378225022984292
:105480008CBF172310230B70054B1B7823B1904260
:1054900094BF002001207047184670473E0000204E
:1054A0003C00002037B51E4B1B78032B044634D03C
:1054B0000DF10701FFF7DAFF1E2C8CBF19491A49BD
:1054C0009DF807204FF001030B608CBF01240024DE
:1054D000164950B1164B4DF601751D60120203F1CD
:1054E000007342F440421A608A810A7C22F0010271
:1054F000024322F0020242EA4402D3B20D4A0B7484
:10550000127852B923F0040343EA800323F008031E
:105510008A89CA8143EAC4030B7403B030BD00BF5B
:105520003E0000200841084608410844D81F0021D9
:1055300004410844AA1B00200A4B0B4AD3F88831C7
:10554000DB4303F4FE1343F40053B3FA83F3C3F1D4
:10555000FF2303F57F03F233C3EB4313013B1370C7
:10556000704700BF00400E4046000020044B00285A
:105570001B780CBF042000201844C0B2704700BF45
:105580004600002030B51F234FF0FF34B0FBF3F38B
:105590005D1CC3EB4313AC40C01AE443C0B2E4B299
:1055A00001301460086030BD2DE9F34116463F4AD2
:1055B0003F4C12683F4F14403A78012A054688460E
:1055C00018D144EA006488F800007B88B3F5E16FE5
:1055D0008CBF5A23C82324F47F549D4224F008042E
:1055E0009ABF200A00F47F5043F6C870204302B0EF
:1055F000BDE8F081304A1278904228BF1546002B52
:1056000014BF042300232B440B70002D30D12B4BEF
:1056100033606A46284601A9FFF7B4FF009A284B79
:1056200001981B7898F800C044EA823444F47F540F
:1056300044F0080444EA006403B322493878224B5A
:10564000B2FA82F2C2F11F02022818BF0B46511CA7
:1056500018D09B5CD8B2316821F07F433360BCF135
:10566000000F11D143F0306343F004033360ACE723
:105670004FF03063013D3360EDB2CAE7FF204FF0D9
:10568000FF32E8E7FF20E6E7013203D0421ED2B244
:10569000FD2A06D921F07F4323F0040343F07F4322
:1056A000E4E743F0040343EA0063DFE7D81F002187
:1056B0003F00C0E03E000020460000200400000B38
:1056C000AB1B0020B883E00FB083E00FF7B50446B2
:1056D000C820FFF7E7FE2A4B2A4D1B78032B01D089
:1056E000FF2C03D1FF20287003B0F0BD012B2BD17C
:1056F000072C204628BF072001284FF0000301AAED
:105700000DF1030138BF0120FFF74EFF1E4B0422AD
:1057100006461A601D4B1E4C019AC3F8582126609C
:105720009DF803002870FFF7BDFE019A130203F4F1
:10573000E06343EA1263174A238112780AB966606C
:1057400063819DF80300CFE78BB9042C11D81F4665
:105750001846201A01AA0DF10301C0B2FFF724FF79
:105760004FF48003064647B10B4A1360D2E700238B
:10577000EDE701231F460420EBE7084AF5E700BFE9
:105780003E0000203D0000205841084400400840F1
:10579000D81F0021AA1B00200841084608410844E0
:1057A00008B500F0FFFE0D4A68B1D2F8003123F4CD
:1057B0007F115B0803F4FE130B43C2F800314FF076
:1057C0000073D36108BDD2F8183123F47F115B0850
:1057D00003F4FE130B43C2F81831F0E70040084011
:1057E0007047000008B500F0DDFE4FF4001330B143
:1057F000044A1360044B4FF000621A6008BD034A6C
:10580000F7E700BF0041084420400844184108441D
:10581000014B1868704700BFAC1B002070B50546EF
:105820000E46C0B201F00F01FFF706FEC6F30311EA
:105830000446C5F30720FFF7FFFDC6F30321044428
:10584000C5F30740FFF7F8FD204470BD434B1B68CC
:105850002DE9F047D0F8F450DFF82081404F414E59
:1058600003F4E073A3F5C072002D08BF0125814643
:10587000504250413C4A1168A9423C4910D10C7831
:1058800084420DD199F864C098F80040A44507D12E
:1058900099F804C03C78A44502D1B088BDE8F087EF
:1058A000B3F5C07F1560087054D099F86430022BAE
:1058B00047D12F4B1B78002B14BFC82496240F21EF
:1058C0002046FFF7B9FDB5FA85F3B0FA80F29B1ACE
:1058D000002BC4BFC3F10F0AD840264BD8BF4FF0EE
:1058E0000F0A85424FEA0440C3F8BC0003F180630D
:1058F00003F1B80340F6FF7238BF0AF1FF3A1A60AD
:1059000003F100734FEA0A211960FFF787FFB080A7
:1059100000F092FC04FA0AF44FF4FA735C4341F687
:105920006A03B0FBF3F0144BB4FBF0F40A204443D9
:105930001C6099F8643088F8003099F804303B70A6
:10594000ABE7012B08D00A4B1B78002B14BFF024C7
:10595000B424B4E70024B2E73224B0E7186008406A
:10596000440000203E00002038000020A81B00203A
:10597000AB1B002000600840AC1B0020450000204D
:10598000FF280BD00D4B0E4A1A600304000503F4E8
:10599000E02300F0F87018430A4B1860FF290BD081
:1059A000064B40F2F7121A600B0103F4F87301F092
:1059B00007011943034B1960704700BF5041084469
:1059C0000000F7015041084608B50D4B186800B1BA
:1059D0000C3000F0D7FD092810D80A4B01281B5CB9
:1059E00005D1094B1B78012B14BF0423442303F07A
:1059F0000F011809BDE80840FFF7C2BFFA23F6E718
:105A0000D01800209C9000003E00002070B5054694
:105A100000F0E0FB142200213448354C354E02F0F2
:105A20009CFF2A78344B022AD3F888312BD113F407
:105A3000001F37D12B682360AB88A380C8202B4D73
:105A4000FFF730FDFF232A6833702C4B1340227878
:105A5000022A2DD12A4A4FF4EE41116002F1007260
:105A60004FF48A41116043F08043012142F8041C45
:105A70002B60244B03221A60FFF7A6FF224B012262
:105A80001A70002013E0012A02D113F4400FD0E76E
:105A900042B91E4A526AD24302F0010203F4800363
:105AA0001343C6E703232370FF233370012070BD27
:105AB000012A17481749184A4FF0070409D1046012
:105AC000062008601549116043F003034FF440417C
:105AD000CCE7046005200860C0211160104A43F043
